{
  "_format": "hh-sol-artifact-1",
  "contractName": "FIRSystem",
  "sourceName": "blockchain/contracts/fir.sol",
  "abi": [
    {
      "inputs": [
        {
          "internalType": "string",
          "name": "name",
          "type": "string"
        },
        {
          "internalType": "string",
          "name": "description",
          "type": "string"
        },
        {
          "internalType": "string",
          "name": "ipfsHash",
          "type": "string"
        }
      ],
      "name": "fileFIR",
      "outputs": [],
      "stateMutability": "nonpayable",
      "type": "function"
    },
    {
      "inputs": [],
      "name": "firCount",
      "outputs": [
        {
          "internalType": "uint256",
          "name": "",
          "type": "uint256"
        }
      ],
      "stateMutability": "view",
      "type": "function"
    },
    {
      "inputs": [
        {
          "internalType": "uint256",
          "name": "",
          "type": "uint256"
        }
      ],
      "name": "firs",
      "outputs": [
        {
          "internalType": "string",
          "name": "name",
          "type": "string"
        },
        {
          "internalType": "string",
          "name": "description",
          "type": "string"
        },
        {
          "internalType": "string",
          "name": "ipfsHash",
          "type": "string"
        },
        {
          "internalType": "uint256",
          "name": "timestamp",
          "type": "uint256"
        }
      ],
      "stateMutability": "view",
      "type": "function"
    },
    {
      "inputs": [
        {
          "internalType": "uint256",
          "name": "id",
          "type": "uint256"
        }
      ],
      "name": "getFIR",
      "outputs": [
        {
          "internalType": "string",
          "name": "",
          "type": "string"
        },
        {
          "internalType": "string",
          "name": "",
          "type": "string"
        },
        {
          "internalType": "string",
          "name": "",
          "type": "string"
        },
        {
          "internalType": "uint256",
          "name": "",
          "type": "uint256"
        }
      ],
      "stateMutability": "view",
      "type": "function"
    }
  ],
  "bytecode": "0x6080604052348015600f57600080fd5b50610c5d8061001f6000396000f3fe608060405234801561001057600080fd5b506004361061004c5760003560e01c80630f9c4ce314610051578063a4de172d1461006d578063d1c45a92146100a0578063f1a5c418146100be575b600080fd5b61006b600480360381019061006691906106c5565b6100f1565b005b610087600480360381019061008291906107a2565b610192565b604051610097949392919061085d565b60405180910390f35b6100a861035a565b6040516100b591906108b7565b60405180910390f35b6100d860048036038101906100d391906107a2565b610360565b6040516100e8949392919061085d565b60405180910390f35b6040518060800160405280848152602001838152602001828152602001428152506000806001548152602001908152602001600020600082015181600001908161013b9190610ade565b5060208201518160010190816101519190610ade565b5060408201518160020190816101679190610ade565b50606082015181600301559050506001600081548092919061018890610bdf565b9190505550505050565b60006020528060005260406000206000915090508060000180546101b590610901565b80601f01602080910402602001604051908101604052809291908181526020018280546101e190610901565b801561022e5780601f106102035761010080835404028352916020019161022e565b820191906000526020600020905b81548152906001019060200180831161021157829003601f168201915b50505050509080600101805461024390610901565b80601f016020809104026020016040519081016040528092919081815260200182805461026f90610901565b80156102bc5780601f10610291576101008083540402835291602001916102bc565b820191906000526020600020905b81548152906001019060200180831161029f57829003601f168201915b5050505050908060020180546102d190610901565b80601f01602080910402602001604051908101604052809291908181526020018280546102fd90610901565b801561034a5780601f1061031f5761010080835404028352916020019161034a565b820191906000526020600020905b81548152906001019060200180831161032d57829003601f168201915b5050505050908060030154905084565b60015481565b606080606060008060008087815260200190815260200160002060405180608001604052908160008201805461039590610901565b80601f01602080910402602001604051908101604052809291908181526020018280546103c190610901565b801561040e5780601f106103e35761010080835404028352916020019161040e565b820191906000526020600020905b8154815290600101906020018083116103f157829003601f168201915b5050505050815260200160018201805461042790610901565b80601f016020809104026020016040519081016040528092919081815260200182805461045390610901565b80156104a05780601f10610475576101008083540402835291602001916104a0565b820191906000526020600020905b81548152906001019060200180831161048357829003601f168201915b505050505081526020016002820180546104b990610901565b80601f01602080910402602001604051908101604052809291908181526020018280546104e590610901565b80156105325780601f1061050757610100808354040283529160200191610532565b820191906000526020600020905b81548152906001019060200180831161051557829003601f168201915b50505050508152602001600382015481525050905080600001518160200151826040015183606001519450945094509450509193509193565b6000604051905090565b600080fd5b600080fd5b600080fd5b600080fd5b6000601f19601f8301169050919050565b7f4e487b7100000000000000000000000000000000000000000000000000000000600052604160045260246000fd5b6105d282610589565b810181811067ffffffffffffffff821117156105f1576105f061059a565b5b80604052505050565b600061060461056b565b905061061082826105c9565b919050565b600067ffffffffffffffff8211156106305761062f61059a565b5b61063982610589565b9050602081019050919050565b82818337600083830152505050565b600061066861066384610615565b6105fa565b90508281526020810184848401111561068457610683610584565b5b61068f848285610646565b509392505050565b600082601f8301126106ac576106ab61057f565b5b81356106bc848260208601610655565b91505092915050565b6000806000606084860312156106de576106dd610575565b5b600084013567ffffffffffffffff8111156106fc576106fb61057a565b5b61070886828701610697565b935050602084013567ffffffffffffffff8111156107295761072861057a565b5b61073586828701610697565b925050604084013567ffffffffffffffff8111156107565761075561057a565b5b61076286828701610697565b9150509250925092565b6000819050919050565b61077f8161076c565b811461078a57600080fd5b50565b60008135905061079c81610776565b92915050565b6000602082840312156107b8576107b7610575565b5b60006107c68482850161078d565b91505092915050565b600081519050919050565b600082825260208201905092915050565b60005b838110156108095780820151818401526020810190506107ee565b60008484015250505050565b6000610820826107cf565b61082a81856107da565b935061083a8185602086016107eb565b61084381610589565b840191505092915050565b6108578161076c565b82525050565b600060808201905081810360008301526108778187610815565b9050818103602083015261088b8186610815565b9050818103604083015261089f8185610815565b90506108ae606083018461084e565b95945050505050565b60006020820190506108cc600083018461084e565b92915050565b7f4e487b7100000000000000000000000000000000000000000000000000000000600052602260045260246000fd5b6000600282049050600182168061091957607f821691505b60208210810361092c5761092b6108d2565b5b50919050565b60008190508160005260206000209050919050565b60006020601f8301049050919050565b600082821b905092915050565b6000600883026109947fffffffffffffffffffffffffffffffffffffffffffffffffffffffffffffffff82610957565b61099e8683610957565b95508019841693508086168417925050509392505050565b6000819050919050565b60006109db6109d66109d18461076c565b6109b6565b61076c565b9050919050565b6000819050919050565b6109f5836109c0565b610a09610a01826109e2565b848454610964565b825550505050565b600090565b610a1e610a11565b610a298184846109ec565b505050565b5b81811015610a4d57610a42600082610a16565b600181019050610a2f565b5050565b601f821115610a9257610a6381610932565b610a6c84610947565b81016020851015610a7b578190505b610a8f610a8785610947565b830182610a2e565b50505b505050565b600082821c905092915050565b6000610ab560001984600802610a97565b1980831691505092915050565b6000610ace8383610aa4565b9150826002028217905092915050565b610ae7826107cf565b67ffffffffffffffff811115610b0057610aff61059a565b5b610b0a8254610901565b610b15828285610a51565b600060209050601f831160018114610b485760008415610b36578287015190505b610b408582610ac2565b865550610ba8565b601f198416610b5686610932565b60005b82811015610b7e57848901518255600182019150602085019450602081019050610b59565b86831015610b9b5784890151610b97601f891682610aa4565b8355505b6001600288020188555050505b505050505050565b7f4e487b7100000000000000000000000000000000000000000000000000000000600052601160045260246000fd5b6000610bea8261076c565b91507fffffffffffffffffffffffffffffffffffffffffffffffffffffffffffffffff8203610c1c57610c1b610bb0565b5b60018201905091905056fea26469706673582212204ce43db535f146572c9d6d07456636ef68c3f844d64b8402f067a4f213cb04d364736f6c634300081c0033",
  "linkReferences": {},
  "deployedLinkReferences": {}
}